:100000001DC02CC06EC02AC029C028C027C026C071
:1000100025C024C023C022C021C0C2C01FC01EC032
:10002000C4C11CC01BC064C219C018C082C116C0A4
:10003000A5C014C013C012C011C010C011241FBE2F
:10004000CFEFD2E0DEBFCDBF21E0A0E0B1E001C044
:100050001D92A531B207E1F76AD2D8C5D1CFCF93AF
:10006000DF93CDB7DEB728970FB6F894DEBF0FBE8B
:10007000CDBF98878F8380E090E0A0EABBE38983BF
:100080009A83AB83BC838F819885CC01A0E0B0E0DC
:10009000BC01CD0173D4DC01CB0129813A814B81B4
:1000A0005C81BC01CD01F8D4DC01CB0120E030E063
:1000B00048EC52E4BC01CD01EFD4DC01CB01BC0122
:1000C000CD012BD4DC01CB019E838D838D819E815C
:1000D00028960FB6F894DEBF0FBECDBFDF91CF914B
:1000E00008951F920F9200905F000F9211242F939A
:1000F0003F938F939F93EF93FF93CF93DF93CDB76E
:10010000DEB789E390E0FC018081882F90E0817068
:100110009927892B99F086E690E026E630E0F901F0
:1001200020812061FC01208386E690E026E630E015
:10013000F90120812B7FFC01208312C086E690E02C
:1001400026E630E0F90120812460FC01208386E668
:1001500090E026E630E0F90120812F7EFC0120832B
:10016000DF91CF91FF91EF919F918F913F912F91CF
:100170000F9000925F000F901F9018951F920F92A2
:1001800000905F000F921124CF93DF93CDB7DEB7BD
:10019000DF91CF910F9000925F000F901F90189504
:1001A0001F920F9200905F000F9211242F933F93A4
:1001B0004F935F936F937F938F939F93AF93BF936F
:1001C000EF93FF93CF93DF9300D000D0CDB7DEB78E
:1001D0008091080190910901843691050CF064C06A
:1001E00086E290E0FC018081918139DF90930B01E0
:1001F00080930A0180910C0190910D0120910A01D8
:1002000030910B01B901B3D4CC01A0E0B0E0BC0146
:10021000CD01B4D3DC01CB0189839A83AB83BC834A
:1002200020E030E44CE156E469817A818B819C8145
:100230000CD3DC01CB0189839A83AB83BC8380918F
:100240000E0190910F01A0911001B091110129812F
:100250003A814B815C81BC01CD0193D2DC01CB01A1
:1002600080930E0190930F01A0931001B0931101A0
:100270008091080190910901019690930901809362
:10028000080189E290E029E230E0F901308121E0C3
:100290002327FC01208380910A0190910B01909308
:1002A0000D0180930C012DC080910E0190910F01E2
:1002B000A0911001B091110120E030E046EC52E431
:1002C000BC01CD01C2D2DC01CB0180930E01909321
:1002D0000F01A0931001B093110110920D01109223
:1002E0000C0110920B0110920A0110920901109258
:1002F000080110920E0110920F011092100110923D
:1003000011010F900F900F900F90DF91CF91FF91FF
:10031000EF91BF91AF919F918F917F916F915F917D
:100320004F913F912F910F9000925F000F901F907F
:1003300018951F920F9200905F000F9211242F9337
:100340003F934F935F936F937F938F939F93AF935D
:10035000BF93EF93FF93CF93DF93CDB7DEB780E8E2
:1003600090E0FC0180818093120185E890E025E80F
:1003700030E0F90120812F7EFC0120838091120161
:10038000E5D1DF91CF91FF91EF91BF91AF919F9117
:100390008F917F916F915F914F913F912F910F902E
:1003A00000925F000F901F9018951F920F9200907F
:1003B0005F000F9211242F933F934F935F936F939E
:1003C0007F938F939F93AF93BF93EF93FF93CF93BD
:1003D000DF93CDB7DEB72697DEBFCDBF86E390E0D3
:1003E000FC018081882F90E084709927892BE1F0AF
:1003F000109207011092060180EC90E0FC018081D0
:100400009181909303018093020110920501109253
:10041000040189EC90E029EC30E0F901308120E41E
:100420002327FC0120834AC080EC90E0FC018081FE
:100430009181909305018093040180910601909130
:1004400007012091040130910501809102019091F2
:100450000301A901481B590BCA019A838983898129
:100460009A819C01990F440B550B88E39CE9ACE100
:10047000B0E0BC01CD018CD3DA01C9019093010138
:100480008093000180910001909101012CE83AE0F5
:10049000F901E81BF90BCF0190931401809313012C
:1004A000109203011092020189EC90E029EC30E0F7
:1004B000F901308120E42327FC01208326960FB622
:1004C000F894DEBF0FBECDBFDF91CF91FF91EF91CA
:1004D000BF91AF919F918F917F916F915F914F915C
:1004E0003F912F910F9000925F000F901F901895F1
:1004F0001F920F9200905F000F9211248F939F9391
:10050000CF93DF93CDB7DEB78091060190910701BD
:1005100001969093070180930601DF91CF919F91FF
:100520008F910F9000925F000F901F901895CF93BE
:10053000DF9300D000D000D0CDB7DEB78AE390E0E3
:100540002AE330E0F90120812862FC0120838AE35C
:1005500090E02AE330E0F90120812E7FFC01208326
:1005600087E390E027E330E0F90120812C7FFC0154
:10057000208383E690E021E0FC012083F89482E36D
:1005800090E022E330E0F90120812160FC0120832A
:100590008BE590E02BE530E0F90120812061FC0142
:1005A00020835CD0BCD085E890E025E830E0F901FC
:1005B00020812F7EFC01208378948091000190910E
:1005C00001012AE53AE0A901481B590BCA019A83A7
:1005D000898389819A8101D0F0CFCF93DF9300D0B6
:1005E00000D000D0CDB7DEB79E838D838D819E81F4
:1005F000092E000CAA0BBB0BBC01CD01C1D1DC0143
:10060000CB0120E030E040E05FE3BC01CD0144D20B
:10061000DC01CB01BC01CD0180D1DC01CB019C838D
:100620008B838B819C819A83898389819A818C3089
:10063000914024F08BE091E09A83898388E490E0F4
:1006400029813A81FC013183208326960FB6F894E4
:10065000DEBF0FBECDBFDF91CF910895CF93DF9363
:10066000CDB7DEB78EE490E02EE430E0F9012081D2
:100670002965FC0120838FE490E02FE430E0F9014C
:1006800020812362FC01208388E690E028E630E0A8
:10069000F90120812160FC01208387E690E027E6B4
:1006A00030E0F90120812061FC01208386E690E0A2
:1006B00026E630E0F90120812061FC01208381E3FE
:1006C00090E021E330E0F90120812162FC012083E8
:1006D00089EC90E029EC30E0F90120812364FC01F1
:1006E00020838AEC90E02AEC30E0F901208120623E
:1006F000FC01208382E590E0FC0110828AE490E016
:100700002AE031E0FC013183208388E490E02BE093
:1007100031E0FC0131832083DF91CF910895CF93A5
:10072000DF93CDB7DEB781E890E023E330E0FC0152
:100730003183208385E890E025E830E0F9012081CD
:10074000286CFC012083DF91CF910895CF93DF9334
:100750001F92CDB7DEB78983000086E890E0FC01E8
:100760008081882F90E080729927892BB1F380E8EF
:1007700090E02981FC0120830F90DF91CF910895B3
:100780005058BB27AA270ED04DC13ED130F043D1DF
:1007900020F031F49F3F11F41EF433C10EF4E095C4
:1007A000E7FB29C1E92F4FD180F3BA17620773071E
:1007B0008407950718F071F49EF567C10EF4E09573
:1007C0000B2EBA2FA02D0B01B90190010C01CA010B
:1007D000A0011124FF27591B99F0593F50F4503EB6
:1007E00068F11A16F040A22F232F342F4427585FA8
:1007F000F3CF469537952795A795F0405395C9F7C0
:100800007EF41F16BA0B620B730B840BBAF0915077
:10081000A1F0FF0FBB1F661F771F881FC2F70EC016
:10082000BA0F621F731F841F48F4879577956795E9
:10083000B795F7959E3F08F0B3CF9395880F08F0D2
:100840009927EE0F9795879508950CD0EBC0E3D0CC
:1008500040F0DAD030F021F45F3F19F0CCC05111F4
:1008600015C1CFC0F0D098F39923C9F35523B1F344
:10087000951B550BBB27AA2762177307840738F00F
:100880009F5F5F4F220F331F441FAA1FA9F333D06E
:100890000E2E3AF0E0E830D091505040E695001C22
:1008A000CAF729D0FE2F27D0660F771F881FBB1FDE
:1008B000261737074807AB07B0E809F0BB0B802DB8
:1008C000BF01FF2793585F4F2AF09E3F510568F004
:1008D00092C0DCC05F3FECF3983EDCF386957795E1
:1008E0006795B795F7959F5FC9F7880F911D969506
:1008F000879597F90895E1E0660F771F881FBB1F62
:10090000621773078407BA0720F0621B730B840B0E
:10091000BA0BEE1F88F7E095089504D06894B111E2
:10092000B5C0089598D088F09F5790F0B92F9927B7
:10093000B751A0F0D1F0660F771F881F991F1AF0EA
:10094000BA95C9F712C0B13081F09FD0B1E00895D7
:100950009CC0672F782F8827B85F39F0B93FCCF358
:10096000869577956795B395D9F73EF490958095E0
:10097000709561957F4F8F4F9F4F0895E89409C000
:1009800097FB3EF490958095709561957F4F8F4FC2
:100990009F4F9923A9F0F92F96E9BB279395F695D8
:1009A000879577956795B795F111F8CFFAF4BB0F56
:1009B00011F460FF1BC06F5F7F4F8F4F9F4F16C0BA
:1009C000882311F096E911C0772321F09EE8872F44
:1009D000762F05C0662371F096E8862F70E060E000
:1009E0002AF09A95660F771F881FDAF7880F969579
:1009F000879597F9089597F99F6780E870E060E020
:100A000008959FEF80EC089500240A9416161706A7
:100A100018060906089500240A94121613061406EF
:100A200005060895092E0394000C11F4882352F052
:100A3000BB0F40F4BF2B11F460FF04C06F5F7F4F0A
:100A40008F4F9F4F089557FD9058440F551F59F0F1
:100A50005F3F71F04795880F97FB991F61F09F3FAB
:100A600079F087950895121613061406551FF2CFD4
:100A70004695F1DF08C0161617061806991FF1CF24
:100A800086957105610508940895E894BB2766274B
:100A90007727CB0197F908950AD0C4CFB5DF28F0A6
:100AA000BADF18F0952309F0A6CFABCFEFCFCBDF9D
:100AB000A8F39923D9F35523C9F3950F50E0551F97
:100AC000AA27EE27FF27BB2700240894679520F468
:100AD000E20FF31FB41F0A1E220F331F441FAA1F69
:100AE0006695A9F7779530F4F30FB41F0A1E121E0E
:100AF00008F46395330F441FAA1F221F769599F7B8
:100B0000879520F4B40F0A1E121E631F440FAA1FFC
:100B1000221F331F8695A9F7862F712D602D112472
:100B20009F5750408AF0E1F088234AF0EE0FFF1FF4
:100B3000BB1F661F771F881F91505040A9F79E3F2B
:100B4000510570F058CFA2CF5F3FECF3983EDCF335
:100B5000869577956795B795F795E7959F5FC1F768
:100B6000FE2B880F911D9695879597F9089500247F
:100B7000552704C0080E591F880F991F009729F0A8
:100B800076956795B8F37105B9F7802D952F08957F
:100B9000052E97FB16F400940FD057FD05D014D006
:100BA00007FC02D046F408C0509540953095219539
:100BB0003F4F4F4F5F4F0895909580957095619589
:100BC0007F4F8F4F9F4F0895A1E21A2EAA1BBB1B88
:100BD000FD010DC0AA1FBB1FEE1FFF1FA217B30709
:100BE000E407F50720F0A21BB30BE40BF50B661F1F
:100BF000771F881F991F1A9469F7609570958095E3
:100C000090959B01AC01BD01CF010895F894FFCFF1
:00000001FF
