:1000000033C0000044C0000042C0000040C00000F7
:100010003EC000003CC000003AC0000038C00000F4
:1000200036C0000034C0000032C0000030C0000004
:100030002EC000002CC000002AC0000028C0000014
:1000400026C0000024C0000022C0000020C0000024
:100050001EC000001CC000001AC0000018C0000034
:1000600016C0000014C0000011241FBECFEFD8E05E
:10007000DEBFCDBF11E0A0E0B1E0E0E0F1E002C002
:1000800005900D92A630B107D9F702D037C0B8CF8E
:10009000CF93DF9300D000D01F92CDB7DEB718D03A
:1000A00085E0E0E0F1E0DE01119601900D928A9585
:1000B000E1F77E0186E0E80EF11C8E010F5F1F4F15
:1000C000F80181918F0112D00E151F05C9F7F5CFE8
:1000D0001092C50087E68093C400E1ECF0E08081D7
:1000E0008860808386E08093C2000895E0ECF0E0B1
:1000F000908195FFFDCF8093C6000895F894FFCFBF
:06010000FF655726010017
:00000001FF
